{
  "contractName": "Ownable",
  "abi": [
    {
      "constant": true,
      "inputs": [],
      "name": "owner",
      "outputs": [
        {
          "name": "",
          "type": "address"
        }
      ],
      "payable": false,
      "stateMutability": "view",
      "type": "function"
    },
    {
      "constant": false,
      "inputs": [
        {
          "name": "newOwner",
          "type": "address"
        }
      ],
      "name": "transferOwnership",
      "outputs": [],
      "payable": false,
      "stateMutability": "nonpayable",
      "type": "function"
    },
    {
      "inputs": [],
      "payable": false,
      "stateMutability": "nonpayable",
      "type": "constructor"
    }
  ],
  "bytecode": "0x6060604052341561000f57600080fd5b336000806101000a81548173ffffffffffffffffffffffffffffffffffffffff021916908373ffffffffffffffffffffffffffffffffffffffff16021790555061020a8061005e6000396000f30060606040526004361061004c576000357c0100000000000000000000000000000000000000000000000000000000900463ffffffff1680638da5cb5b14610051578063f2fde38b146100a6575b600080fd5b341561005c57600080fd5b6100646100df565b604051808273ffffffffffffffffffffffffffffffffffffffff1673ffffffffffffffffffffffffffffffffffffffff16815260200191505060405180910390f35b34156100b157600080fd5b6100dd600480803573ffffffffffffffffffffffffffffffffffffffff16906020019091905050610104565b005b6000809054906101000a900473ffffffffffffffffffffffffffffffffffffffff1681565b6000809054906101000a900473ffffffffffffffffffffffffffffffffffffffff1673ffffffffffffffffffffffffffffffffffffffff163373ffffffffffffffffffffffffffffffffffffffff1614151561015f57600080fd5b600073ffffffffffffffffffffffffffffffffffffffff168173ffffffffffffffffffffffffffffffffffffffff161415151561019b57600080fd5b806000806101000a81548173ffffffffffffffffffffffffffffffffffffffff021916908373ffffffffffffffffffffffffffffffffffffffff160217905550505600a165627a7a72305820c5653f488fd05b7714d75896fd166ea8e690ef0a16ff213cf74c3758bef2b9440029",
  "source": "pragma solidity ^0.4.16;\n\n/**\n * @title Ownable\n * @dev The Ownable contract has an owner address, and provides basic authorization control\n * functions, this simplifies the implementation of \"user permissions\".\n */\ncontract Ownable {\n\n    address public owner;\n\n    /**\n    * @dev The Ownable constructor sets the original `owner` of the contract to the sender\n    * account.\n    */\n    function Ownable() public {\n        owner = msg.sender;\n    }\n\n    /**\n    * @dev Throws if called by any account other than the owner.\n    */\n    modifier onlyOwner() {\n        require(msg.sender == owner);\n        _;\n    }\n\n    /**\n    * @dev Allows the current owner to transfer control of the contract to a newOwner.\n    * @param newOwner The address to transfer ownership to.\n    */\n    function transferOwnership(address newOwner) onlyOwner public {\n        require(newOwner != address(0));\n        owner = newOwner;\n    }\n\n}\ncontract DucaturToken3 is Ownable{\n\n    uint256 public totalSupply;\n    mapping(address => uint256) balances;\n    mapping(address => mapping(address => uint256)) allowed;\n\n    string public constant name = \"Ducatur3\";\n    string public constant symbol = \"DCT3\";\n    uint32 public constant decimals = 4;\n\n    uint constant start = 1517418000;\n    uint constant period = 187;\n    uint256 public constant hardcap = 25 * 1000000 * (10 ** uint256(decimals));\n\n    bool public transferAllowed = true;\n    bool public mintingFinished = false;\n\n    modifier whenTransferAllowed() {\n        if(msg.sender != owner){\n            require(transferAllowed);\n        }\n        _;\n    }\n\n    modifier saleIsOn() {\n        require(now > start && now < start + period * 1 days);\n        _;\n    }\n\n    modifier canMint() {\n        require(!mintingFinished);\n        _;\n    }\n\n    function transfer(address _to, uint256 _value) whenTransferAllowed public returns (bool) {\n        require(_to != address(0));\n        require(_value <= balances[msg.sender]);\n\n        balances[msg.sender] = balances[msg.sender] - _value;\n        balances[_to] = balances[_to] + _value;\n        //assert(balances[_to] >= _value); no need to check, since mint has limited hardcap\n        Transfer(msg.sender, _to, _value);\n        return true;\n    }\n\n    function balanceOf(address _owner) constant public returns (uint256 balance) {\n        return balances[_owner];\n    }\n\n    function transferFrom(address _from, address _to, uint256 _value) whenTransferAllowed public returns (bool) {\n        require(_to != address(0));\n        require(_value <= balances[_from]);\n        require(_value <= allowed[_from][msg.sender]);\n\n        balances[_from] = balances[_from] - _value;\n        balances[_to] = balances[_to] + _value;\n        //assert(balances[_to] >= _value); no need to check, since mint has limited hardcap\n        allowed[_from][msg.sender] = allowed[_from][msg.sender] - _value;\n        Transfer(_from, _to, _value);\n        return true;\n    }\n\n    function approve(address _spender, uint256 _value) public returns (bool) {\n        //NOTE: To prevent attack vectors like the one discussed here:\n        //https://github.com/ethereum/EIPs/issues/20#issuecomment-263524729,\n        //clients SHOULD make sure to create user interfaces in such a way\n        //that they set the allowance first to 0 before setting it to another value for the same spender.\n\n        allowed[msg.sender][_spender] = _value;\n        Approval(msg.sender, _spender, _value);\n        return true;\n    }\n\n    function allowance(address _owner, address _spender) public constant returns (uint256 remaining) {\n        return allowed[_owner][_spender];\n    }\n\n    function allowTransfer() onlyOwner public {\n        transferAllowed = true;\n    }\n\n    function mint(address _to, uint256 _value) onlyOwner saleIsOn canMint public returns (bool) {\n        require(_to != address(0));\n\n        if(_value + totalSupply <= hardcap){\n\n            totalSupply = totalSupply + _value;\n\n            assert(totalSupply >= _value);\n\n            balances[msg.sender] = balances[msg.sender] + _value;\n            assert(balances[msg.sender] >= _value);\n            Mint(msg.sender, _value);\n\n            transfer(_to, _value);\n        }\n        return true;\n    }\n\n    function finishMinting() onlyOwner public returns (bool) {\n        mintingFinished = true;\n        MintFinished();\n        return true;\n    }\n\n    /**\n     * @dev Burns a specific amount of tokens.\n     * @param _value The amount of token to be burned.\n     */\n    function burn(uint256 _value) public returns (bool) {\n        require(_value <= balances[msg.sender]);\n        // no need to require value <= totalSupply, since that would imply the\n        // sender's balance is greater than the totalSupply, which *should* be an assertion failure\n        balances[msg.sender] = balances[msg.sender] - _value;\n        totalSupply = totalSupply - _value;\n        Burn(msg.sender, _value);\n        return true;\n    }\n\n    function burnFrom(address _from, uint256 _value) public returns (bool success) {\n        require(_value <= balances[_from]);\n        require(_value <= allowed[_from][msg.sender]);\n        balances[_from] = balances[_from] - _value;\n        allowed[_from][msg.sender] = allowed[_from][msg.sender] - _value;\n        totalSupply = totalSupply - _value;\n        Burn(_from, _value);\n        return true;\n    }\n\n    event Transfer(address indexed from, address indexed to, uint256 value);\n\n    event Approval(address indexed owner, address indexed spender, uint256 value);\n\n    event Mint(address indexed to, uint256 amount);\n\n    event MintFinished();\n\n    event Burn(address indexed burner, uint256 value);\n\n}",
  "sourcePath": "/Volumes/Works/BlockChain/Bell/dapp_ducatur/contracts/DucaturToken3.sol",
  "compiler": {
    "name": "solc",
    "version": "0.4.18+commit.9cf6e910.Emscripten.clang"
  },
  "schemaVersion": "1.0.1",
  "updatedAt": "2018-05-08T19:48:45.951Z"
}